:100000000C948A000C949C000C949C000C949C0012
:100010000C949C000C949C000C949C000C949C00F0
:100020000C949C000C949C000C949C000C949C00E0
:100030000C949C000C949C000C949C000C949C00D0
:100040000C949C000C949C000C944C010C949C000F
:100050000C949C000C949C000C949C000C949C00B0
:100060000C949C000C949C000C949C000C949C00A0
:100070000C949C000C949C000C949C000C949C0090
:100080000C949C000C949C000C949C00C000C30039
:10009000B600BA00DA00DA00C700CB00D100D50004
:1000A00000002100240027002A0000002200250073
:1000B00028002B00040404040404040402020202C5
:1000C000020202020303030303030303010101010C
:1000D000010101010102040810204080010204080E
:1000E0001020408001020408102040800102040812
:1000F00010204080000000000403080700000001F9
:100100000200090A000000000000000000000000DA
:100110000000000011241FBECFEFD0E4DEBFCDBF32
:1001200021E0A0E0B1E001C01D92A930B207E1F7E3
:100130000E9496010C941D020C940000ECEFF0E07C
:100140004491ECEDF0E09491ECEBF0E0249122236B
:1001500009F444C0442371F150E0FA013197EA30C8
:10016000F10540F5EA5BFF4F0C94140230918000DA
:100170003F7703C0309180003F7D309380001AC0EC
:1001800034B53F7702C034B53F7D34BD13C03091E4
:10019000B0003F7703C03091B0003F7D3093B00096
:1001A00009C0309190003F7703C0309190003F7DAF
:1001B00030939000E22FF0E0EE0FFF1FE655FF4F67
:1001C000A591B4912FB7F894811104C08C919095AA
:1001D000982302C0EC919E2B9C932FBF08953FB7AC
:1001E000F8948091050190910601A0910701B091CA
:1001F000080126B5A89B05C02F3F19F00196A11D47
:10020000B11D3FBFBA2FA92F982F8827820F911DAC
:10021000A11DB11DBC01CD0143E0660F771F881FF2
:10022000991F4A95D1F708958F929F92AF92BF92EE
:10023000CF92DF92EF92FF920E94EF004B015C01A0
:1002400088EEC82E83E0D82EE12CF12C0E94EF001E
:10025000DC01CB0188199909AA09BB09883E9340A2
:10026000A105B10598F321E0C21AD108E108F1080F
:1002700088EE880E83E0981EA11CB11CC114D10425
:10028000E104F10419F7FF90EF90DF90CF90BF9059
:10029000AF909F908F9008951F920F920FB60F927C
:1002A00011242F933F938F939F93AF93BF9380918C
:1002B000010190910201A0910301B09104013091DC
:1002C000000126E0230F2D3720F40296A11DB11D59
:1002D00005C029E8230F0396A11DB11D209300013D
:1002E0008093010190930201A0930301B093040154
:1002F0008091050190910601A0910701B09108013C
:100300000196A11DB11D8093050190930601A09354
:100310000701B0930801BF91AF919F918F913F91D9
:100320002F910F900FBE0F901F901895789484B561
:10033000826084BD84B5816084BD85B5826085BDE1
:1003400085B5816085BD80916E00816080936E006F
:100350001092810080918100826080938100809161
:100360008100816080938100809180008160809312
:1003700080008091B10084608093B1008091B000D2
:1003800081608093B00080919100826080939100A1
:1003900080919100816080939100809190008160B4
:1003A0008093900080917A00846080937A0080919D
:1003B0007A00826080937A0080917A008E7F8093A9
:1003C0007A0080917A00806880937A001092C10050
:1003D000ECEDF0E02491ECEBF0E08491882399F0CF
:1003E00090E0880F991FFC01E056FF4FA591B49152
:1003F000FC01E655FF4F859194918FB7F894EC91ED
:10040000E22BEC938FBFC0E0D0E081E00E949E0021
:100410000E94140180E00E949E000E941401209717
:10042000A1F30E940000F1CFEE0FFF1F0024001C7B
:0E0430000BBE0790F691E02D0994F894FFCFD3
:00000001FF
