:100000000C948B000C94B5000C94B5000C94B500C6
:100010000C94B5000C94B5000C94B5000C94B5008C
:100020000C94B5000C94B5000C94B5000C94B5007C
:100030000C94B5000C94B5000C94B5000C94B5006C
:100040000C94B5000C94B5000C9480040C94B5008D
:100050000C94F4040C94CA040C94B5000C94B500F0
:100060000C94B5000C94B5000C942A050C94B500C2
:100070000C94B5000C94B5000C94B5000C94B5002C
:100080000C94B5000C94B5000C94B5005B015E01B6
:100090005101550175017501620166016C01700124
:1000A0000000000004030807000000010200090A24
:1000B0000000000000000000000000000000000040
:1000C00000002200250028002B0000002100240051
:1000D00027002A00040404040404040402020202A7
:1000E00002020202030303030303030301010101EC
:1000F00001010101010204081020408001020408EE
:1001000010204080010204081020408001020408F1
:10011000102040805C0611241FBECFEFD0E4DEBF6C
:10012000CDBF22E0AEE6B1E001C01D92A63DB20710
:10013000E1F711E0A0E0B1E0EEE2F5E100E00BBF95
:1001400002C007900D92AE36B107D9F710E0CBE8A8
:10015000D0E004C02197FE010E94E109CA38D1070E
:10016000C9F70E9495060C94950A0C940000282F5C
:1001700030912C02313208F04AC08091080281117E
:10018000FCCF90912B0242E040930802209307029B
:100190002FEF209306021092050230930402EBE049
:1001A000F2E0A4EEB1E020E0321721F041914D934E
:1001B0002F5FFACF1092E3012091E301990F922B68
:1001C0009093E3019091E201913061F41092E20189
:1001D0009091E3019093BB009091BC0093FDF8CF08
:1001E00095EC01C095EE9093BC009091080292307E
:1001F000E1F3909106029F3F79F0809106028032F0
:1002000041F080910602803331F084E005C081E046
:1002100003C082E001C083E010920A0210922C0217
:100220001092090208950895089590E0FC01EC50A1
:10023000FF4F2491FC01EC52FF4F8491882399F0E9
:1002400090E0880F991FFC01E653FF4FA591B491F0
:10025000FC01E054FF4F859194918FB7F894EC9195
:10026000E22BEC938FBF0895362F90E0FC01E0560F
:10027000FF4F4491FC01EC50FF4F2491FC01EC52E4
:10028000FF4F8491882309F444C0442371F150E066
:10029000FA013197EA30F10540F5EA5BFF4F0C9423
:1002A000E109909180009F7703C0909180009F7D2D
:1002B000909380001AC094B59F7702C094B59F7D3B
:1002C00094BD13C09091B0009F7703C09091B0008F
:1002D0009F7D9093B00009C0909190009F7703C0DC
:1002E000909190009F7D90939000E82FF0E0EE0FAA
:1002F000FF1FE054FF4FA591B4919FB7F8943111BF
:1003000004C08C912095282302C0EC912E2B2C93B5
:100310009FBF08951092C1011092C00110920A026D
:1003200010922C021092080281E080930702109232
:10033000E20161E081E10E94340161E080E10E941C
:100340003401E9EBF0E080818E7F808380818D7FB6
:10035000808380E28093B80085E48093BC0083E1D1
:1003600091E09093BF018093BE0184E191E090936E
:10037000BD018093BC0108953FB7F8948091B80106
:100380009091B901A091BA01B091BB0126B5A89B8B
:1003900005C02F3F19F00196A11DB11D3FBFBA2F17
:1003A000A92F982F8827820F911DA11DB11DBC0177
:1003B000CD0143E0660F771F881F991F4A95D1F73B
:1003C00008958F929F92AF92BF92CF92DF92EF9259
:1003D000FF926B017C010E94BC014B015C01C114C6
:1003E000D104E104F104F1F00E94BC01DC01CB0175
:1003F00088199909AA09BB09883E9340A105B1054E
:1004000070F321E0C21AD108E108F10888EE880EE5
:1004100083E0981EA11CB11CC114D104E104F104B5
:1004200019F7DDCFFF90EF90DF90CF90BF90AF90A6
:100430009F908F900895CF92DF92EF92FF920F934B
:100440001F93CF93DF936C017A018B01C0E0D0E062
:10045000CE15DF0581F0D8016D918D01D601ED91AA
:10046000FC910190F081E02DC6010995892B11F0D6
:100470002196EECF7E01C701DF91CF911F910F91A1
:10048000FF90EF90DF90CF900895FC01538D448D45
:10049000252F30E0842F90E0821B930B541710F02F
:1004A000CF96089501970895FC01918D828D98173C
:1004B00061F0828DDF01A80FB11D5D968C91928D48
:1004C0009F5F9F73928F90E008958FEF9FEF089545
:1004D000FC01918D828D981731F0828DE80FF11D0E
:1004E000858D90E008958FEF9FEF0895FC01918D29
:1004F000228D892F90E0805C9F4F821B91098F7322
:10050000992708958DE292E00E94760221E0892BDE
:1005100009F420E0822F0895FC01848DDF01A80FEB
:10052000B11DA35ABF4F2C91848D90E001968F731B
:100530009927848FA689B7892C93A089B1898C913A
:10054000837080648C93938D848D981306C0028889
:10055000F389E02D80818F7D80830895EF92FF9253
:100560000F931F93CF93DF93EC0181E0888F9B8DD6
:100570008C8D981305C0E889F989808185FD26C096
:10058000F62E0B8D10E00F5F1F4F0F731127E02E1B
:100590008C8DE8120CC00FB607FCFACFE889F989F8
:1005A000808185FFF5CFCE010E948C02F1CF8B8D2B
:1005B000FE01E80FF11DE35AFF4FF0829FB7F89458
:1005C0000B8FEA89FB89808180620AC09FB7F8940B
:1005D000EE89FF896083E889F9898081837080646E
:1005E00080839FBF81E090E0DF91CF911F910F91B9
:1005F000FF90EF900895CF93DF93EC01888D8823CF
:10060000C9F0EA89FB89808185FD05C0A889B9897F
:100610008C9186FD0FC00FB607FCF5CF808185FF5A
:10062000F2CFA889B9898C9185FFEDCFCE010E94C8
:100630008C02E7CFDF91CF91089580E090E0892B85
:1006400021F00E94820281110DC080E090E0892B90
:1006500071F080E090E0892B51F00E940000811140
:1006600004C008950E940000F0CF0C94000008958B
:1006700085ED8093BC008091BC0084FDFCCF10927E
:100680000802089540918E01262F30E0240F311D7D
:1006900021323105DCF4209108022430C9F4FC0138
:1006A00080E090E0861758F430918E012191DC01B2
:1006B000A259BE4FA30FB11D2C930196F3CF809189
:1006C0008E01680F60938E0180E0089581E00895A7
:1006D00082E008950895E091C1018091C001E8177A
:1006E00030F4F0E0EE53FE4F808190E008958FEFFC
:1006F0009FEF08959091C1018091C001981750F427
:10070000E92FF0E0EE53FE4F208130E09F5F9093A1
:10071000C10102C02FEF3FEFC90108958091C001D0
:1007200090E02091C101821B91090895CF92DF9240
:10073000EF92FF920F931F93CF93DF937C01CB0136
:100740008A0120910902222389F0EB016B01C40E7A
:10075000D51ECC15DD0569F06991D701ED91FC91AD
:100760000190F081E02DC7010995F3CF642F0E941D
:100770004203C801DF91CF911F910F91FF90EF903D
:10078000DF90CF900895CF93DF931F92CDB7DEB760
:100790006983209109022223D1F020912C0220327A
:1007A00040F021E030E0FC013383228380E090E0E0
:1007B00015C080910A02E82FF0E0E55FFD4F9981B6
:1007C00090838F5F80930A0280932C0205C061E0C2
:1007D000CE0101960E94420381E090E00F90DF91EC
:1007E000CF910895CF93C62F91E09093090298E698
:1007F00090932B0210920A0210922C02682F8AEC1E
:1008000092E00E94C3036C2F8AEC92E00E94C30323
:1008100081E0CF910C94B700089580E090E00895B6
:10082000009769F0FC0101900020E9F73197AF01D2
:10083000481B590BBC018DE292E00C941B0280E036
:1008400090E0089591E09093090298E690932B022E
:1008500010920A0210922C02682F8AEC92E00E94F9
:10086000C30381E00E94B700809108028111FCCF90
:1008700081E080930802809307029FEF9093060225
:1008800010920502109204028093E3018091E3012B
:10089000806D8093E3018091E201813061F41092D8
:1008A000E2018091E3018093BB008091BC0083FD55
:1008B000F8CF85EC01C085EE8093BC0080910802E2
:1008C0008130E1F380910502811103C0909105020E
:1008D00001C091E0E4EEF1E0A2ECB1E080E0891724
:1008E00021F021912D938F5FFACF1092C101809357
:1008F000C0018AEC92E00E947A0308950E94900A57
:100900001F920F920FB60F9211242F933F938F9344
:100910009F93AF93BF938091B4019091B501A09143
:10092000B601B091B7013091B30126E0230F2D3706
:1009300020F40296A11DB11D05C029E8230F0396DE
:10094000A11DB11D2093B3018093B4019093B50113
:10095000A093B601B093B7018091B8019091B9010D
:10096000A091BA01B091BB010196A11DB11D809368
:10097000B8019093B901A093BA01B093BB01BF91A4
:10098000AF919F918F913F912F910F900FBE0F903C
:100990001F9018951F920F920FB60F9211240BB64D
:1009A0000F922F933F934F935F936F937F938F9308
:1009B0009F93AF93BF93EF93FF938DE292E00E94DA
:1009C0008C02FF91EF91BF91AF919F918F917F9199
:1009D0006F915F914F913F912F910F900BBE0F90B0
:1009E0000FBE0F901F9018951F920F920FB60F9287
:1009F00011240BB60F922F938F939F93EF93FF9336
:100A0000E0913D02F0913E028081E0914302F0913D
:100A1000440282FD12C09081809146028F5F8F73E5
:100A200020914702821751F0E0914602F0E0E35D29
:100A3000FD4F958F8093460201C08081FF91EF9119
:100A40009F918F912F910F900BBE0F900FBE0F9023
:100A50001F9018951F920F920FB60F9211240BB68C
:100A60000F922F933F934F935F936F937F938F9347
:100A70009F93AF93BF93EF93FF938091B900887FCB
:100A8000803609F49CC068F5883209F45BC090F4A4
:100A9000803109F454C038F4882309F4F6C0883052
:100AA00009F44DC0F6C0883109F44CC0803209F415
:100AB0005DC0EFC0803409F468C048F4803309F4A5
:100AC00055C0883309F0E5C080930602D8C0803550
:100AD00009F44FC0883509F45DC0883409F0D9C0E5
:100AE000D6C0883909F4C7C0A8F4883709F467C0AC
:100AF00038F4883609F463C0803709F460C0C9C08F
:100B0000883809F4B8C0803909F45FC0803809F02A
:100B1000C0C05BC0803B09F486C038F4803A09F459
:100B200066C0883A09F47FC0B4C0803C09F4A7C00D
:100B3000883C09F4A4C0883B09F48AC0AAC080910B
:100B4000E30110C09091050280910402981770F59E
:100B5000E091050281E08E0F80930502F0E0EC51F8
:100B6000FE4F80818093BB0085EC86C08093060297
:100B70008EC0E091050281E08E0F80930502809186
:100B8000BB00F0E0EC51FE4F808390910502809114
:100B900004026EC0E091050281E08E0F8093050291
:100BA0008091BB00F0E0EC51FE4F80838091070202
:100BB00081116DC081E08093E20184EA61C083E02D
:100BC000809308021092B001CFCF8091B0018032A3
:100BD00008F051C0E091B00181E08E0F8093B00128
:100BE0008091BB00F0E0E057FE4F8083BDCF85ECE5
:100BF0008093BC00109208028091B001803230F4E2
:100C0000E091B001F0E0E057FE4F10826091B0013A
:100C100070E0E091BC01F091BD0180E991E009959F
:100C20001092B00136C084E08093080210928F01C8
:100C300010928E01E091BE01F091BF010995809163
:100C40008E01811105C081E080938E0110926E01AA
:100C5000E0918F0181E08E0F80938F01F0E0E259E7
:100C6000FE4F80818093BB0090918F0180918E0117
:100C7000981708F479CF85E88093BC000AC085EC0A
:100C80008093BC001092080204C0109206020E94D9
:100C90003803FF91EF91BF91AF919F918F917F9119
:100CA0006F915F914F913F912F910F900BBE0F90DD
:100CB0000FBE0F901F901895EDE2F2E013821282A2
:100CC00088EE93E0A0E0B0E084839583A683B783A9
:100CD00024E031E03183208325EC30E03587248720
:100CE00024EC30E03787268720EC30E0318B208BF6
:100CF00021EC30E0338B228B22EC30E0358B248BDF
:100D000026EC30E0378B268B118E128E138E148ECC
:100D1000EAECF2E01382128284839583A683B78380
:100D200086E191E0918380830895CF93DF93CDB7DF
:100D3000DEB7A2970FB6F894DEBF0FBECDBF789492
:100D400084B5826084BD84B5816084BD85B58260D0
:100D500085BD85B5816085BD80916E008160809381
:100D60006E001092810080918100826080938100EA
:100D700080918100816080938100809180008160FA
:100D8000809380008091B10084608093B100809155
:100D9000B00081608093B000809191008260809368
:100DA00091008091910081608093910080919000EA
:100DB00081608093900080917A00846080937A00B3
:100DC00080917A00826080937A0080917A008E7F91
:100DD00080937A0080917A00806880937A001092E4
:100DE000C10088E00E94150189E00E941501E09190
:100DF0003D02F0913E0282E08083E0913902F09161
:100E00003A021082E0913B02F0913C0280E1808343
:100E100010924502E0914102F091420286E0808307
:100E2000E0913F02F0914002808180618083E091F7
:100E30003F02F0914002808188608083E0913F0210
:100E4000F0914002808180688083E0913F02F091C0
:100E5000400280818F7D80830E948A010E948A01E6
:100E60006CE18EE00E94F2036AE070E080E090E0C6
:100E70000E94E10182E00E942204682F6F7B82E0E1
:100E80000E94F2036AE070E080E090E00E94E101DD
:100E900084E291E00E94100489E591E00E94100430
:100EA0002AE0822E912CA12CB12C8091B10190913D
:100EB000B201892B39F481E090E09093B2018093E4
:100EC000B10104C01092B2011092B1010091B101C0
:100ED0001091B201602F88E00E94340161E0012B83
:100EE00009F060E089E00E9434018EE00E94220453
:100EF000682F60628EE00E94F20381E10E9422046A
:100F0000182F82E10E942204682F70E096E0759508
:100F100067959A95E1F7072E000C880B990B17FF40
:100F20001EC00E94A20820E030E040E85EE30E947C
:100F300001096B017C01612F619570E080E090E018
:100F40000E94A2089B01AC01C701B6010E94EB09F7
:100F50006B017C01F7FAF094F7F8F09418C00E9446
:100F6000A20820E030E040E85EE30E9401096B0146
:100F70007C01612F70E080E090E00E94A2089B015C
:100F8000AC01C701B6010E94EB096B017C01A7010E
:100F90009601C701B6010E948B0A882319F08CE5DF
:100FA00091E01AC026013701E89477F82FEF3FEF60
:100FB0004FE75FE7C301B2010E948B0A81110FC0A6
:100FC0002FEF3FEF4FE75FE7C301B2010E949B089D
:100FD00018162CF480E691E00E9410049BC02FEFBD
:100FE0003FEF4FE75FE4C701B6010E94860A18167B
:100FF0001CF484E691E0F0CF2FEF3FEF4FE75FEC7A
:10100000C701B6010E949B0887FDF3CF20E030E0C6
:10101000A901C701B6010E949B0887FF09C06DE2C4
:101020008DE292E00E94AE02F7FAF094F7F8F094A5
:101030002AE037ED43EA5BE3C701B6010E94EB0902
:101040002B013C010E94570A6B017C010E94A00801
:101050009B01AC01C301B2010E94EA091B012C01F2
:1010600019A28E010F5D1F4F0AA3712EC701B60191
:10107000A50194010E94BF0969017A01605DF80130
:1010800062938F01232B242B252B81F7CF010E9404
:1010900010046EE28DE292E00E94AE0283E0F82E30
:1010A000FA94FF20B9F120E030E040E251E4C201BF
:1010B000B1010E9401091B012C010E94570A9B01EA
:1010C00040E050E019A20AA1172D662EC32ED42E9F
:1010D000E52ECA01B901A50194010E94BF09605D16
:1010E000F80162938F01211531054105510589F7FA
:1010F000CF010E941004662D7C2D8D2D9E2D0E9407
:10110000A0089B01AC01C201B1010E94EA091B01C8
:101110002C01C6CF88E691E00E94100489E591E099
:101120000E94100468EE73E080E090E00E94E1010C
:101130000E941D03BACE0E94DD0808F481E00895E4
:10114000E89409C097FB3EF4909580957095619561
:101150007F4F8F4F9F4F9923A9F0F92F96E9BB2717
:101160009395F695879577956795B795F111F8CF93
:10117000FAF4BB0F11F460FF1BC06F5F7F4F8F4FFE
:101180009F4F16C0882311F096E911C0772321F0F4
:101190009EE8872F762F05C0662371F096E8862F8C
:1011A00070E060E02AF09A95660F771F881FDAF7E3
:1011B000880F9695879597F90895990F0008550F10
:1011C000AA0BE0E8FEEF16161706E807F907C0F0CD
:1011D00012161306E407F50798F0621B730B840BD5
:1011E000950B39F40A2661F0232B242B252B21F4AF
:1011F00008950A2609F4A140A6958FEF811D811D4F
:1012000008950E9414090C9485090E94770938F00A
:101210000E947E0920F0952311F00C946E090C9425
:10122000740911240C94B9090E94960970F3959FD2
:10123000C1F3950F50E0551F629FF001729FBB27CD
:10124000F00DB11D639FAA27F00DB11DAA1F649F69
:101250006627B00DA11D661F829F2227B00DA11D1C
:10126000621F739FB00DA11D621F839FA00D611DA2
:10127000221F749F3327A00D611D231F849F600DC3
:10128000211D822F762F6A2F11249F5750409AF0EC
:10129000F1F088234AF0EE0FFF1FBB1F661F771F78
:1012A000881F91505040A9F79E3F510580F00C9443
:1012B0006E090C94B9095F3FE4F3983ED4F3869528
:1012C00077956795B795F795E7959F5FC1F7FE2BE3
:1012D000880F911D9695879597F9089597F99F67BF
:1012E00080E870E060E008959FEF80EC08950024AE
:1012F0000A941616170618060906089500240A947B
:1013000012161306140605060895092E0394000C00
:1013100011F4882352F0BB0F40F4BF2B11F460FF8F
:1013200004C06F5F7F4F8F4F9F4F089557FD9058B8
:10133000440F551F59F05F3F71F04795880F97FB99
:10134000991F61F09F3F79F0879508951216130653
:101350001406551FF2CF4695F1DF08C01616170682
:101360001806991FF1CF86957105610508940895B7
:10137000E894BB2766277727CB0197F90895A1E268
:101380001A2EAA1BBB1BFD010DC0AA1FBB1FEE1FFF
:10139000FF1FA217B307E407F50720F0A21BB30B4A
:1013A000E40BF50B661F771F881F991F1A9469F7C6
:1013B00060957095809590959B01AC01BD01CF0122
:1013C0000895EE0FFF1F0024001C0BBE0790F6913E
:1013D000E02D09945058BB27AA270E94020A0C94BA
:1013E00085090E94770938F00E947E0920F039F4BF
:1013F0009F3F19F426F40C9474090EF4E095E7FB72
:101400000C946E09E92F0E94960958F3BA176207E7
:1014100073078407950720F079F4A6F50C94B809B2
:101420000EF4E0950B2EBA2FA02D0B01B9019001FF
:101430000C01CA01A0011124FF27591B99F0593F43
:1014400050F4503E68F11A16F040A22F232F342F8B
:101450004427585FF3CF469537952795A795F040D9
:101460005395C9F77EF41F16BA0B620B730B840BEE
:10147000BAF09150A1F0FF0FBB1F661F771F881FA6
:10148000C2F70EC0BA0F621F731F841F48F48795FE
:1014900077956795B795F7959E3F08F0B0CF9395F0
:1014A000880F08F09927EE0F9795879508950E9469
:1014B0009E0988F09F5798F0B92F9927B751B0F03F
:1014C000E1F0660F771F881F991F1AF0BA95C9F7C8
:1014D00014C0B13091F00E94B809B1E008950C94A5
:1014E000B809672F782F8827B85F39F0B93FCCF358
:1014F000869577956795B395D9F73EF49095809545
:10150000709561957F4F8F4F9F4F08950E94DD0822
:1015100008F48FEF08950E94DD08880B990B089559
:0E15200081E090E0F8940C94950AF894FFCFC7
:10152E0000000000AE021B024502FB0276025402CE
:10153E00680200000000C30396030D046A038E03C5
:10154E007A036B03456E7669726F444959204D617B
:10155E0079666C793A20426C696E6B2064656D6FAA
:10156E0020776974682073657269616C2074656D8B
:10157E007065726174757265000D0A006E616E00A1
:0E158E00696E66006F76660064656720430034
:00000001FF
